:10000000BAC3D4C3FFC779C4D1C3D0C3CFC3CEC38F
:10001000CDC3CCC3CBC3CAC3C9C3C8C3C7C3D339F9
:100020000900E5D605008A6705004BFF04006CB5A2
:1000300004001D7C0400674D04000726040007042B
:10004000040020E6030073CB030061B30300759D39
:10005000030057890300C07603007A6503005A55F0
:1000600003003A460300FE3703008D2A0300D01D2B
:100070000300B81103003306030031FB0200A7F0B0
:1000800002008BE60200D4DC02007BD3020079CAB6
:100090000200C9C1020063B9020044B1020067A9AD
:1000A0000200C8A10200639A0200359302003B8C53
:1000B000020071850200D67E02006778020022727B
:1000C0000200046C02000C66020038600200865ACE
:1000D0000200F5540200844F0200304A0200F94445
:1000E0000200DD3F0200DC3A0200F4350200253157
:1000F00002006D2C0200CC27020040230200CA1E21
:100100000200671A020018160200DC110200B30D8B
:1001100002009B090200930502009D010200B6FD4A
:100120000100DFF9010017F601005DF20100B2EEF7
:10013000010014EB010083E7010000E4010089E005
:1001400001001EDD0100C0D901006CD6010024D3DE
:100150000100E7CF0100B5CC01008DC9010070C6D8
:1001600001005CC3010052C0010051BD01005ABA38
:1001700001006BB7010085B40100A8B10100D4AE45
:10018000010007AC010041A9010081A60100C7A33D
:10019000010014A10100669E0100BF9B01001D9992
:1001A000010080960100EA93010059910100CD8E73
:1001B0000100468C0100C589010048870100D184F7
:1001C00001005F820100F17F0100887D0100247B36
:1001D0000100C47801006976010012740100C07149
:1001E0000100716F0100286D0100E26A0100A06842
:1001F00001006266010029640100F3610100C15F32
:100200000100935D0100685B0100415901001E5728
:100210000100FE540100E2520100CA500100B44E38
:100220000100A24C0100944A010088480100804668
:1002300001007B4401007A4201007B4001007F3EC7
:100240000100873C0100913A01009E380100AF3661
:100250000100C2340100D8320100F03001000C2F3F
:1002600001002A2D01004B2B01006E29010094276B
:100270000100BD250100E8230100162201004620EF
:100280000100791E0100AE1C0100E51A01001F19D2
:1002900001005C1701009A150100DB1301001E121A
:1002A000010064100100AB0E0100F50C0100410BD0
:1002B00001008F090100E0070100320601008604F9
:1002C0000100DD0201003501010090FF0000ECFD9E
:1002D00000004BFC0000ABFA00000EF9000072F7C2
:1002E0000000D8F5000040F40000AAF2000016F16A
:1002F000000084EF0000F3ED000064EC0000D7EA9A
:1003000000004CE90000C2E700003AE60000B4E457
:1003100000002FE30000ACE100002BE00000ACDEA9
:1003200000002EDD0000B1DB000036DA0000BDD891
:10033000000045D70000CFD500005BD40000E7D215
:10034000000076D1000006D0000097CE00002ACD34
:100350000000BECB000054CA0000EBC8000083C7F9
:1003600000001DC60000B9C4000055C30000F3C161
:10037000000093C0000033BF0000D5BD000079BC71
:1003800000001DBB0000C3B900006BB8000013B72C
:100390000000BDB5000068B4000014B30000C2B195
:1003A000000070B0000020AF0000D2AD000084ACAF
:1003B000000037AB0000ECA90000A2A8000059A77C
:1003C000000011A60000CAA4000085A3000040A2FE
:1003D0000000FDA00000BB9F00007A9E0000399D38
:1003E0000000FB9B0000BD9A00008099000044982B
:1003F000000009970000CF950000979400005F93DC
:10040000000028920000F3900000BE8F00008B8E49
:100410000000588D0000268C0000F58A0000C68977
:10042000000097880000698700003C860000108566
:100430000000E5830000BB820000928100006A801A
:100440000000427F00001C7E0000F67C0000D27B92
:100450000000AE7A00008B790000697800004877D0
:1004600000002876000008750000EA730000CC72D6
:100470000000AF71000093700000786F00005D6EA7
:100480000000436D00002B6C0000136B0000FB6943
:100490000000E5680000CF670000BB660000A665AD
:1004A000000093640000816300006F6200005E61E1
:1004B00000004E6000003E5F00002F5E0000215DE6
:1004C0000000145C0000085B0000FC590000F158BB
:1004D0000000E6570000DD560000D4550000CC5463
:1004E0000000C4530000BD520000B7510000B250DC
:1004F0000000AD4F0000A94E0000A64D0000A34C27
:100500000000A14B0000A04A00009F4900009F4846
:1005100000009F470000A1460000A3450000A5443D
:100520000000A8430000AC420000B1410000B6400A
:100530000000BB3F0000C23E0000C93D0000D03CAF
:100540000000D83B0000E13A0000EB390000F5382C
:100550000000FF3700000A37000016360000233580
:100560000000303400003D3300004B3200005A31AF
:10057000000069300000792F00008A2E00009B2DBA
:100580000000AC2C0000BE2B0000D12A0000E429A2
:100590000000F82800000C28000021270000362663
:1005A00000004C250000632400007A230000912203
:1005B0000000A9210000C2200000DB1F0000F51E82
:1005C00000000F1E00002A1D0000451C0000601BDB
:1005D00000007D1A000099190000B7180000D41718
:1005E0000000F21600001116000030150000501433
:1005F00000007013000091120000B2110000D4102E
:100600000000F60F0000180F00003B0E00005F0D09
:100610000000830C0000A70B0000CC0A0000F209C8
:100620000000170900003E080000650700008C0666
:100630000000B3050000DC040000040400002D03EA
:1006400000005702000080010000AB000000D6FF50
:10065000FFFF01FFFFFF2CFEFFFF58FDFFFF85FCA2
:10066000FFFFB2FBFFFFDFFAFFFF0DFAFFFF3BF9D1
:10067000FFFF6AF8FFFF99F7FFFFC8F6FFFFF8F5E5
:10068000FFFF28F5FFFF59F4FFFF8AF3FFFFBCF2DD
:10069000FFFFEEF1FFFF20F1FFFF53F0FFFF86EFBA
:1006A000FFFFB9EEFFFFEDEDFFFF22EDFFFF56EC80
:1006B000FFFF8BEBFFFFC1EAFFFFF7E9FFFF2DE92B
:1006C000FFFF64E8FFFF9BE7FFFFD2E6FFFF0AE6BC
:1006D000FFFF42E5FFFF7BE4FFFFB3E3FFFFEDE237
:1006E000FFFF26E2FFFF60E1FFFF9BE0FFFFD6DF99
:1006F000FFFF11DFFFFF4CDEFFFF88DDFFFFC4DCE3
:10070000FFFF01DCFFFF3EDBFFFF7BDAFFFFB9D914
:10071000FFFFF7D8FFFF35D8FFFF74D7FFFFB3D631
:10072000FFFFF2D5FFFF32D5FFFF72D4FFFFB3D337
:10073000FFFFF4D2FFFF35D2FFFF76D1FFFFB8D025
:10074000FFFFFACFFFFF3DCFFFFF7FCEFFFFC3CDFF
:10075000FFFF06CDFFFF4ACCFFFF8ECBFFFFD2CAC3
:10076000FFFF17CAFFFF5CC9FFFFA2C8FFFFE8C772
:10077000FFFF2EC7FFFF11241FBECFE5D2E0DEBF73
:10078000CDBF10E0A0E6B0E0E0E7FCE102C00590DC
:100790000D92A236B107D9F721E0A2E6B0E001C080
:1007A0001D92A63CB207E1F725D960CA29CC0F9368
:1007B0001F936091AA017091AB018091AC0190915F
:1007C000AD0163D4609380017093810180938201B5
:1007D000909383016091A2017091A3018091A40183
:1007E0009091A50152D460937C0170937D01809318
:1007F0007E0190937F0100918001109181012091F1
:10080000820130918301DC01CB01801B910BA20B93
:10081000B30B8093840190938501A0938601B093DC
:1008200087011F910F9108958AE991E09CD162E6BA
:1008300070E08AE991E0A9D1809162009091630013
:10084000A0916400B09165008093AE019093AF01D8
:10085000A093B001B093B1010895680F791F20E40F
:100860003BE18617970751F0FC014191CF014FB949
:100870002EB93DB9769BFDCF4FB1F3CF0895680FE8
:10088000791F2FEF30E44BE18617970751F02FB90E
:100890003EB94DB9769BFDCF5FB1FC015193CF01BD
:1008A000F3CF08958AE18DB9B898B99ABA9A0895A4
:1008B00098B3892B88BB089598B38095982398BBEB
:1008C000089598B39F7E8071892B88BB089598B353
:1008D0008071982798BB08950F931F93CF93C82FCB
:1008E0008B01E6DFC8017ED08C2FE6DFCF911F9110
:1008F0000F910895C498BC9A08951F920F920FB655
:100900000F9211242F933F934F935F936F937F9395
:100910008F939F93AF93BF93EF93FF938091880141
:10092000909189010196909389018093880180912B
:1009300088019091890120916A0030916B00821B9F
:10094000930B97FD03C088E891E064D4FF91EF9189
:10095000BF91AF919F918F917F916F915F914F91D7
:100960003F912F910F900FBE0F901F901895F89404
:10097000809188019091890178940895F89480E895
:1009800086BD85E086BD789485E880BF1CBC1EBC12
:100990001BBC8CE78DBD80E489BFB99A0895000027
:1009A000000000000197292F282BC9F70895CF9345
:1009B000DF93EC01F89490936B0080936A00809130
:1009C0008801909189019E01281B390BC9011816D5
:1009D000190624F488E891E013D4F1CF7894DF91DC
:1009E000CF910895CF93DF93EC01C1DF8C0F9D1F52
:1009F000DEDFDF91CF910895C3980895C39A0895DB
:100A0000A5E0B0E0E5E0F5E09FC88D83F5DFA89AAA
:100A100061E070E0CE01059620DFF894C09905C032
:100A20008CE690E0EDD38823C9F3A8987894E6DFAC
:100A3000E3DF198261E070E0CE0101960EDF63E032
:100A400070E0CE0102961BDFD9DF2A816B81862FF1
:100A500090E0A0E0B0E0BA2FA92F982F8827A22B12
:100A60002C81BC01CD01622B2596E2E089C8A898B3
:100A70008CE690E0CFD30895EF92FF921F93CF932F
:100A8000DF931F92CDB7DEB780916D00811164C0F6
:100A900081E080936D008EE18983AEDF61E070E0DC
:100AA000CE010196DADE81E090E09CDFA7DFBAE8B4
:100AB000EB2EB1E0FB2E10E0812F880F806A898336
:100AC0009BDF61E070E0CE010196C7DE62E070E07E
:100AD000C701D5DE93DF82E0E80EF11C1F5F1830FE
:100AE00059F7EAE8F1E04AE951E0DF018D9181111F
:100AF00005C04A175B07D1F784E4C6D3209199015A
:100B00001092990180E090E03191832738E0BC0198
:100B1000660F771F97FF04C0CB01A0E39A2701C09F
:100B2000CB013150A1F74E175F0771F72093990160
:100B3000892F992782958F702F7030E08217930745
:100B4000D9F6EAE8F1E08081918190838183329641
:100B500081E0EA39F807B9F70F90DF91CF911F9143
:100B6000FF90EF900895CF93DF93EC0188E448DF86
:100B7000688379838A839B8384E542DF6C837D83EA
:100B80008E839F83DF91CF910895A7E3B0E0EAECD5
:100B9000F5E0CAC79EA78DA77A8B698B80919401D7
:100BA00090919501A0E0B0E0BA2FA92F982F882747
:100BB000EDA5FEA54480558066807780481A590AC5
:100BC0006A0A7B0A93018201330F000B102F9801F0
:100BD00009871A872B873C8780919601909197010E
:100BE0008C0120E030E040E050E0BA0189831A83B4
:100BF0002B833C834D835E836F837887520163012F
:100C0000E984FE2C0E2D1E2D29813A8140E050E012
:100C100060E070E080E090E059D707E1D5D7298304
:100C20003A834B835C836D837E838F83988729818E
:100C30003A814B815C812053384F4F4F5F4F2D8756
:100C40003E874F87588B80919201909193018C0140
:100C500020E030E040E050E0BA018FA718AB29ABAC
:100C60003AAB4BAB5CAB6DAB7EAB0E2D1E2D2FA507
:100C700038A940E050E060E070E080E090E026D7E6
:100C800006E0A2D749014C8B5B8BB62FA72FF82F1C
:100C9000E92FA0908E01B0908F01950140E050E0C7
:100CA00060E070E080E090E001E175D759016A01F1
:100CB0007B018C0194014C895B896B2F7A2F8F2FDC
:100CC0009E2FA0D72C8B3D8B4E8B5F8B688F798F9F
:100CD0008A8F9B8F80919001909191018C0120E0EF
:100CE00030E040E050E0BA018FA718AB29AB3AAB37
:100CF0004BAB5CAB6DAB7EAB52016301E984FE2C68
:100D00000E2D1E2D2FA538A940E050E060E070E0C8
:100D100080E090E0DBD607E057D749014C8F5B8B32
:100D2000B62FA72FF82FE92FA0908C01B0908D013E
:100D3000950140E050E060E070E080E090E000E18C
:100D40002AD759016A017B018C0194014C8D5B8982
:100D50006B2F7A2F8F2F9E2F55D72C8F3D8F4E8F35
:100D60005F8F68A379A38AA39BA32D853E854F85BA
:100D70005889203D3740410551050CF0EFC0520124
:100D80006301E984FE2C0E2D1E2D9201A301602F1C
:100D9000702F802F9E2D9AD60FE116D729873A877C
:100DA0004B875C872DE3A22EB12CC12CD12CE12CDA
:100DB000F12C00E010E029813A814B815C8149806F
:100DC0005A806B807C80770C4408542C3201642D4F
:100DD000742D842D942D7AD6A980BA80CB80DC80A6
:100DE000E42CF42C042D142D71D604E0EDD62B8BBD
:100DF0003CA34DA35EA36FA378A789A79AA79501EB
:100E0000A601642D742D842D942D01E0C4D6042DEB
:100E10005DD62FAB3FA7942E852E362E272E8BA77F
:100E20009CA78D859E85AF85B88984329A4FAF4F38
:100E3000BF4F0CF051C069817A818B819C816455D0
:100E4000724F8F4F9F4F9B01AC01FFD52B013C018F
:100E50008B019C01330F000B102F980109831A831B
:100E60002B833C839FE0A92EB12CC12CD12CE12CEB
:100E7000F12C00E010E09201A3016981762F862F0A
:100E8000962F24D6AB88BCA0CDA0DEA0EFA0F8A4FE
:100E900009A51AA5B7D62B8B3CA34DA35EA36FA3C0
:100EA00078A789A79AA79201A3016981762F862F37
:100EB000962F03E070D6AFA8BFA4C92CD82CE32C82
:100EC000F22C0BA51CA59ED62FAB3FA7942E852EEA
:100ED000362E272E8BA79CA72D853E854F855889BA
:100EE00069857A858B859C85261B370B480B590BAA
:100EF0002D873E874F87588B2C893D894E895F8986
:100F0000688D798D8A8D9B8DAB88BCA0CDA0DEA02D
:100F1000EFA0F8A409A51AA57ED62C8B3D8B4E8B8D
:100F20005F8B688F798F8A8F9B8F2C8D3D8D4E8D37
:100F30005F8D68A179A18AA19BA1AFA8BFA4C92C8C
:100F4000D82CE32CF22C0BA51CA565D62C8F3D8F3D
:100F50004E8F5F8F68A379A38AA39BA3EDA5FEA5FF
:100F600080819181A281B3818C019D0140E050E09C
:100F7000BA0189831A832B833C834D835E836F83FD
:100F80007887AC8CBD8CCE8CDF8CE8A0F9A00AA150
:100F90001BA129813A814B815C8160E070E080E097
:100FA00090E094D505E110D6AC88BD88CE88DF8866
:100FB000E88CF98C0A8D1B8D2ED60FE005D6A989F9
:100FC000BA892C9311963C93119712964C931297D1
:100FD00013965C9313970D851E852F85388914967B
:100FE0000D931D932D933C931797E796E2E1B8C5B7
:100FF00010926D00C39ABB9A47E355E061E080E030
:101000002DD008951F920F920FB60F9211242F9397
:101010003F934F935F936F937F938F939F93AF9380
:10102000BF93EF93FF9396B380916E00892329F0CD
:10103000E0916F00F09170000995FF91EF91BF91E1
:10104000AF919F918F917F916F915F914F913F9160
:101050002F910F900FBE0F901F9018955093700016
:1010600040936F0021E030E0A90102C0440F551FFA
:101070008A95E2F7CA0140936E0095B38095892363
:1010800085BB8BB780628BBF08958F929F92AF9282
:10109000BF92CF92DF92EF92FF92CF93DF9397FDB3
:1010A0000CC0613C24ED720721E08207910544F0F9
:1010B00060EC74ED81E090E003C060E070E0CB0193
:1010C000C72ED82EE92EFF24E7FCFA94EB01DD278A
:1010D000F601EE0FFF1FEE0FFF1FE25EFF4F25919F
:1010E000359145915491F6013196EE0FFF1FEE0FA9
:1010F000FF1FE25EFF4FC590D590E590F49060E051
:1011000071E06C1B7D0B072E000C880B990B9DD496
:101110004B015C019E01DD0F440B550BC701B6016D
:1011200094D4DC01CB01880D991DAA1DBB1D8058EC
:101130009F4FAF4FBF4F692F7A2F8B2F992787FD76
:101140009A95DF91CF91FF90EF90DF90CF90BF9075
:10115000AF909F908F900895CF92DF92EF92FF9281
:10116000CF93DF93209184013091850140918601D6
:101170005091870157FD40C0E0E0DAE08AE0C82ED8
:10118000D12CE12CF12CC1E0CE0FF0E0EF58FF4F55
:10119000822F6D2F73D49083CA01B901A7019601E4
:1011A00079D4EC2F211531054105510561F7C15066
:1011B000EC2FF0E0EF58FF4FD081D11108C06DE760
:1011C00070E080E189DB85E290E00CDC09C065E23B
:1011D00070E080E181DB85E290E004DCD150B9F77A
:1011E0008DE790E0FFDBC111E2CFDF91CF91FF905F
:1011F000EF90DF90CF90089510927100C1E0D7CFAB
:1012000085B7806285BF7894889585B78F7D85BFC7
:1012100080E008950895460F571FFB01861B970B2A
:101220009C012E0F3F1FE417F50751F0E199FECF07
:101230003FBB2EBBF894E09A2DB378942193F0CF66
:101240000895460F571FFB01861B970B9C012E0F1D
:101250003F1FE417F50761F06191E199FECF1CBAD9
:101260003FBB2EBB6DBBF894E29AE19A7894EECF27
:101270000895815040F020E02150D9F390E0915042
:10128000D9F30000FCCF0895F894082F00748F73F1
:10129000C82FD0E084E1EDDF002341F080E108DBDE
:1012A00088E2E7DF80E108DB8AE0E3DF10E0812FFE
:1012B00090E08C179D0774F780E1FADA8AE0D9DFB5
:1012C00080E1FADA8AE0D5DF1F5FF1CF8A3010F4CF
:1012D000805D01C0895AC2D00895A2E0B0E0E2E783
:1012E000F9E032C480916000909161000A97969570
:1012F00087959A83898344E050E06AEA71E080E050
:1013000090E09FDF44E050E062EA71E084E090E02A
:1013100098DF42E050E0BE016F5F7F4F88E090E0D1
:1013200090DF2296E2E02CC444E050E06AEA71E0EB
:1013300080E090E070DF44E050E062EA71E084E039
:1013400090E069DF0895A2E0B0E0E8EAF9E0FCC3CC
:101350008091AE019091AF019A8389838091600062
:1013600090916100811522E0920778F442E050E00C
:10137000BE016F5F7F4F65DF8091600090916100DB
:10138000029690936100809360002296E2E0F8C399
:10139000CF93C82F82958F7099DF8C2F8F7096DF37
:1013A000CF9108958DE05AD08AE058D00895A3E0F7
:1013B000B0E0ECEDF9E0C2C342E050E0BE016F5F87
:1013C0007F4F88E090E027DF89819A81019611F4B0
:1013D0001A82198289819A8105967C01EE0CFF1C84
:1013E00039D08DE43BD080E539D00FEF1FEFC12C11
:1013F000D12CCE14DF0411F1C6018F709927892BEF
:1014000009F4D0DF41E050E0BE016D5F7F4FC601BF
:1014100002DF8B81BDDF9B8188E09801292716952B
:10142000079520FF04C028E0022724E8122796959C
:10143000815099F78FEFC81AD80ADBCFB3DF009538
:101440001095812FA5DF802FA3DFACDF05D0239679
:10145000E8E090C3C49A0895C498089590E0880F76
:10146000991F9260F8944AE028B32F7E382F31708C
:10147000330F330F330F330F000000000000232B16
:1014800028BB969587950000000000000000000032
:10149000000000000000415039F778940895A6E05C
:1014A000B0E0E4E5FAE041C362DA9E838D83BCD903
:1014B0007ED18091AE019091AF01A091B001B09129
:1014C000B1018093AA019093AB01A093AC01B093BA
:1014D000AD018093A6019093A701A093A801B093BA
:1014E000A901812C912C5401312CE12CF12C0D817E
:1014F0001E81045F1F4F1E830D8367011FE1C12200
:10150000DD24C114D10411F480E1D2D98D819E81F2
:101510004EDA8AD969D1D8D1CD2811F480E1CCD95D
:101520008091AE019091AF01A091B001B091B10155
:10153000E32DF0E0EE0FFF1FEE0FFF1FE458FF4F0B
:1015400080839183A283B38301E0030D0F73302E58
:101550004091AA015091AB016091AC017091AD0135
:101560004090B2015090B3016090B4017090B50109
:101570008A019B0104191509260937090133110550
:10158000210531059CF510E8E116F10464F420E42E
:10159000E216F10424F4880E991EAA1EBB1E3FEF2A
:1015A000E31AF30AA4CF8091A6019091A701A0911C
:1015B000A801B091A9018093AA019093AB01A093D7
:1015C000AC01B093AD01F6E0B694A79497948794DC
:1015D000FA95D1F78092A6019092A701A092A80156
:1015E000B092A901812C912C54017FCF485151090F
:1015F000610971094093A2015093A3016093A40172
:101600007093A5011EEF130D1F73232D30E02E5F85
:101610003F4F2F733327812F90E08217930799F064
:10162000880F991F880F991FFC01E458FF4F808194
:101630009181A281B38184179507A607B70718F493
:1016400012501F73E8CF1315C1F0E12FF0E0EE0F39
:10165000FF1FEE0FFF1FE458FF4F80819181A28191
:10166000B3818093AE019093AF01A093B001B0938A
:10167000B10169DE1E5F1F73E6CF8090B2019090CA
:10168000B301A090B401B090B5018092A2019092F4
:10169000A301A092A401B092A50175016401312CAF
:1016A000412C512C612C712C0D811E81045F1F4F28
:1016B0001E830D83C8017BD9830103701127011597
:1016C000110511F480E1F4D8AFD88ED0FDD001150A
:1016D000110511F480E1F0D84A94452821F433DE55
:1016E000412C512C03C044244394512C8091B601C9
:1016F0009091B7018C3E9F4F14F1332011F03A9432
:1017000020C08091B2019091B301A091B401B09139
:10171000B5014091A2015091A3016091A401709183
:10172000A50184179507A607B70758F48093A2016F
:101730009093A301A093A401B093A50102C08AE0F5
:10174000382E3FE363167104A9F4C818D908EA08D3
:10175000FB0888E1C816D104E104F1042CF1C09023
:10176000B201D090B301E090B401F090B501460110
:10177000570198CF8091B2019091B301A091B4012B
:10178000B091B50188159905AA05BB0510F44C0167
:101790005D01C816D906EA06FB0610F46C017D014E
:1017A0009FEF691A790A80CF2696E1E1DAC180912C
:1017B000AE019091AF01A091B001B091B1018093C1
:1017C000B2019093B301A093B401B093B501BA2FC5
:1017D000A92F982F88278093B8019093B901A093DF
:1017E000BA01B093BB0108958F929F92AF92BF92BE
:1017F000CF92DF92EF92FF920F931F93C090B601AA
:10180000D090B7010D2C000CEE08FF086091C001CC
:101810007091C101072E000C880B990B23E938E168
:1018200040E050E012D14B015C012EE231E040E09B
:1018300050E0C701B60109D1DC01CB01880D991D2B
:10184000AA1DBB1D892F9A2FAB2FBB27A7FDBA95C9
:101850000091B8011091B9012091BA013091BB01FA
:10186000800F911FA21FB31F8093B8019093B901FD
:10187000A093BA01B093BB0123E938E140E050E006
:10188000C701B601E2D0C090C201D090C301E09080
:10189000C401F090C501DC01CB018C0D9D1DAE1D76
:1018A000BF1D8093C2019093C301A093C401B09364
:1018B000C5011F910F91FF90EF90DF90CF90BF90E7
:1018C000AF909F908F9008954F925F926F927F920A
:1018D0008F929F92AF92BF92CF92DF92EF92FF9240
:1018E0004090B8015090B9016090BA017090BB016E
:1018F000BB27A72D962D852D8090AE019090AF012E
:10190000881A990A092C000CAA08BB0827ED3DE5A6
:1019100040E050E0C501B40198D0BB2797FDBA95CF
:10192000A92F982F872F6C017D01C40CD51CE61CB4
:10193000F71CC092B801D092B901E092BA01F092BE
:10194000BB012FE23EED40E050E0C501B4017DD087
:101950004090C2015090C3016090C4017090C501D5
:10196000460E571E681E791E4092C2015092C30156
:101970006092C4017092C5012AE037E041E050E076
:10198000C501B40162D08090BC019090BD01A090CF
:10199000BE01B090BF01DC01CB01880D991DAA1DCD
:1019A000BB1D8093BC019093BD01A093BE01B09379
:1019B000BF01CD2CDE2CEF2CFF24C092B201D092BF
:1019C000B301E092B401F092B5017092C10160924E
:1019D000C001B093B701A093B601FF90EF90DF90E4
:1019E000CF90BF90AF909F908F907F906F905F90BF
:1019F0004F9008957FD7C2D755D7FADA3DD88DE7F3
:101A000090E0F0D791DCD3D6A7DBCAE080E15FD7C6
:101A10008AE090E0E7D7C150C9F789E190E0E2D7CA
:101A2000C6DC8CE49DE1DED73ADD57DCC0D694DB22
:101A3000F89485B7877E806185BF85B7806285BF52
:101A4000889585B78F7D85BFF3CFEE27FF27AA271F
:101A5000BB2708C0A20FB31FE41FF51F220F331FBF
:101A6000441F551F969587957795679598F3704015
:101A7000A9F7009799F7BD01CF010895991B79E067
:101A800004C0991F961708F0961B881F7A95C9F70E
:101A900080950895052E97FB16F400940FD057FDFE
:101AA00005D0C2D007FC02D046F408C0509540953E
:101AB000309521953F4F4F4F5F4F089590958095FA
:101AC000709561957F4F8F4F9F4F0895DF93CF9310
:101AD0009F92A0E49A2E0024D001E001F001169517
:101AE0000795F794E794D794C794B794A79448F4CC
:101AF0001068A20FB31FC41FD51FE61FF71F081ED3
:101B0000191E220F331F441F551F661F771F881F82
:101B1000991F9A9421F79D01AE01BF01C0011124C4
:101B20009F90CF91DF9108952F923F924F925F92B5
:101B30006F927F928F929F92AF92BF92CF92DF92DD
:101B4000EF92FF920F931F93CF93DF93CDB7DEB742
:101B5000CA1BDB0B0FB6F894DEBF0FBECDBF0994D6
:101B60002A88398848885F846E847D848C849B842D
:101B7000AA84B984C884DF80EE80FD800C811B813B
:101B8000AA81B981CE0FD11D0FB6F894DEBF0FBE6A
:101B9000CDBFED0108950F93083090F0982F872F57
:101BA000762F652F542F432F322F22270850F4CF42
:101BB000220F331F441F551F661F771F881F991F51
:101BC0000A95B2F70F91089597FB10F81694000844
:101BD0000F93083098F00850232F342F452F562F9D
:101BE000672F782F892F902DF4CF0594979587959F
:101BF0007795679557954795379527950A95AAF74D
:101C00000F9108952A0D3B1D4C1D5D1D6E1D7F1DFE
:101C1000801F911F08952A193B094C095D096E091F
:101C20007F09800B910B0895A1E21A2EAA1BBB1B02
:101C3000FD010DC0AA1FBB1FEE1FFF1FA217B30798
:101C4000E407F50720F0A21BB30BE40BF50B661FAE
:101C5000771F881F991F1A9469F760957095809572
:101C600090959B01AC01BD01CF010895F894FFCF81
:021C70000A0068
:00000001FF
